{
  "_format": "hh-sol-artifact-1",
  "contractName": "ViolenceReport",
  "sourceName": "contracts/ViolenceReport.sol",
  "abi": [
    {
      "anonymous": false,
      "inputs": [
        {
          "indexed": false,
          "internalType": "string",
          "name": "fileHash",
          "type": "string"
        },
        {
          "indexed": false,
          "internalType": "string",
          "name": "violenceType",
          "type": "string"
        },
        {
          "indexed": false,
          "internalType": "string",
          "name": "location",
          "type": "string"
        },
        {
          "indexed": false,
          "internalType": "uint256",
          "name": "date",
          "type": "uint256"
        }
      ],
      "name": "ReportSubmitted",
      "type": "event"
    },
    {
      "inputs": [
        {
          "internalType": "uint256",
          "name": "",
          "type": "uint256"
        }
      ],
      "name": "allReportHashes",
      "outputs": [
        {
          "internalType": "string",
          "name": "",
          "type": "string"
        }
      ],
      "stateMutability": "view",
      "type": "function"
    },
    {
      "inputs": [],
      "name": "getAllReportHashes",
      "outputs": [
        {
          "internalType": "string[]",
          "name": "",
          "type": "string[]"
        }
      ],
      "stateMutability": "view",
      "type": "function"
    },
    {
      "inputs": [
        {
          "internalType": "string",
          "name": "_fileHash",
          "type": "string"
        }
      ],
      "name": "getReport",
      "outputs": [
        {
          "internalType": "string",
          "name": "violenceType",
          "type": "string"
        },
        {
          "internalType": "string",
          "name": "location",
          "type": "string"
        },
        {
          "internalType": "uint256",
          "name": "date",
          "type": "uint256"
        },
        {
          "internalType": "string",
          "name": "fileHash",
          "type": "string"
        },
        {
          "internalType": "bool",
          "name": "exists",
          "type": "bool"
        }
      ],
      "stateMutability": "view",
      "type": "function"
    },
    {
      "inputs": [],
      "name": "getReportCount",
      "outputs": [
        {
          "internalType": "uint256",
          "name": "",
          "type": "uint256"
        }
      ],
      "stateMutability": "view",
      "type": "function"
    },
    {
      "inputs": [
        {
          "internalType": "string",
          "name": "",
          "type": "string"
        }
      ],
      "name": "reports",
      "outputs": [
        {
          "internalType": "string",
          "name": "violenceType",
          "type": "string"
        },
        {
          "internalType": "string",
          "name": "location",
          "type": "string"
        },
        {
          "internalType": "uint256",
          "name": "date",
          "type": "uint256"
        },
        {
          "internalType": "string",
          "name": "fileHash",
          "type": "string"
        },
        {
          "internalType": "bool",
          "name": "exists",
          "type": "bool"
        }
      ],
      "stateMutability": "view",
      "type": "function"
    },
    {
      "inputs": [
        {
          "internalType": "string",
          "name": "_violenceType",
          "type": "string"
        },
        {
          "internalType": "string",
          "name": "_location",
          "type": "string"
        },
        {
          "internalType": "uint256",
          "name": "_date",
          "type": "uint256"
        },
        {
          "internalType": "string",
          "name": "_fileHash",
          "type": "string"
        }
      ],
      "name": "submitReport",
      "outputs": [],
      "stateMutability": "nonpayable",
      "type": "function"
    },
    {
      "inputs": [
        {
          "internalType": "string",
          "name": "_fileHash",
          "type": "string"
        }
      ],
      "name": "verifyReport",
      "outputs": [
        {
          "internalType": "bool",
          "name": "",
          "type": "bool"
        }
      ],
      "stateMutability": "view",
      "type": "function"
    }
  ],
  "bytecode": "0x608060405234801561001057600080fd5b50611392806100206000396000f3fe608060405234801561001057600080fd5b506004361061007d5760003560e01c8063adf3f92a1161005b578063adf3f92a1461011a578063c14ebe5414610136578063cad9642b14610154578063f92df032146101725761007d565b806312e63d711461008257806364cceaef146100b6578063a0c6fc90146100ea575b600080fd5b61009c60048036038101906100979190610ad5565b6101a2565b6040516100ad959493929190610bd1565b60405180910390f35b6100d060048036038101906100cb9190610ad5565b6103df565b6040516100e1959493929190610bd1565b60405180910390f35b61010460048036038101906100ff9190610c65565b6105d0565b6040516101119190610c92565b60405180910390f35b610134600480360381019061012f9190610cb4565b61067c565b005b61013e61085e565b60405161014b9190610e7b565b60405180910390f35b61015c610937565b6040516101699190610e9d565b60405180910390f35b61018c60048036038101906101879190610ad5565b610944565b6040516101999190610eb8565b60405180910390f35b606080600060606000806000876040516101bc9190610f0f565b90815260200160405180910390206040518060a00160405290816000820180546101e590610f55565b80601f016020809104026020016040519081016040528092919081815260200182805461021190610f55565b801561025e5780601f106102335761010080835404028352916020019161025e565b820191906000526020600020905b81548152906001019060200180831161024157829003601f168201915b5050505050815260200160018201805461027790610f55565b80601f01602080910402602001604051908101604052809291908181526020018280546102a390610f55565b80156102f05780601f106102c5576101008083540402835291602001916102f0565b820191906000526020600020905b8154815290600101906020018083116102d357829003601f168201915b505050505081526020016002820154815260200160038201805461031390610f55565b80601f016020809104026020016040519081016040528092919081815260200182805461033f90610f55565b801561038c5780601f106103615761010080835404028352916020019161038c565b820191906000526020600020905b81548152906001019060200180831161036f57829003601f168201915b505050505081526020016004820160009054906101000a900460ff161515151581525050905080600001518160200151826040015183606001518460800151955095509550955095505091939590929450565b60008180516020810182018051848252602083016020850120818352809550505050505060009150905080600001805461041890610f55565b80601f016020809104026020016040519081016040528092919081815260200182805461044490610f55565b80156104915780601f1061046657610100808354040283529160200191610491565b820191906000526020600020905b81548152906001019060200180831161047457829003601f168201915b5050505050908060010180546104a690610f55565b80601f01602080910402602001604051908101604052809291908181526020018280546104d290610f55565b801561051f5780601f106104f45761010080835404028352916020019161051f565b820191906000526020600020905b81548152906001019060200180831161050257829003601f168201915b50505050509080600201549080600301805461053a90610f55565b80601f016020809104026020016040519081016040528092919081815260200182805461056690610f55565b80156105b35780601f10610588576101008083540402835291602001916105b3565b820191906000526020600020905b81548152906001019060200180831161059657829003601f168201915b5050505050908060040160009054906101000a900460ff16905085565b600181815481106105e057600080fd5b9060005260206000200160009150905080546105fb90610f55565b80601f016020809104026020016040519081016040528092919081815260200182805461062790610f55565b80156106745780601f1061064957610100808354040283529160200191610674565b820191906000526020600020905b81548152906001019060200180831161065757829003601f168201915b505050505081565b60008151116106c0576040517f08c379a00000000000000000000000000000000000000000000000000000000081526004016106b790610fd2565b60405180910390fd5b6000816040516106d09190610f0f565b908152602001604051809103902060040160009054906101000a900460ff161561072f576040517f08c379a000000000000000000000000000000000000000000000000000000000815260040161072690611064565b60405180910390fd5b6040518060a00160405280858152602001848152602001838152602001828152602001600115158152506000826040516107699190610f0f565b9081526020016040518091039020600082015181600001908161078c9190611230565b5060208201518160010190816107a29190611230565b506040820151816002015560608201518160030190816107c29190611230565b5060808201518160040160006101000a81548160ff02191690831515021790555090505060018190806001815401808255809150506001900390600052602060002001600090919091909150908161081a9190611230565b507faba8aa1dc4d131b0a3dcbf94417d69e11c13edd4eceedb40203d4074bda976ee818585856040516108509493929190611302565b60405180910390a150505050565b60606001805480602002602001604051908101604052809291908181526020016000905b8282101561092e5783829060005260206000200180546108a190610f55565b80601f01602080910402602001604051908101604052809291908181526020018280546108cd90610f55565b801561091a5780601f106108ef5761010080835404028352916020019161091a565b820191906000526020600020905b8154815290600101906020018083116108fd57829003601f168201915b505050505081526020019060010190610882565b50505050905090565b6000600180549050905090565b600080826040516109559190610f0f565b908152602001604051809103902060040160009054906101000a900460ff169050919050565b6000604051905090565b600080fd5b600080fd5b600080fd5b600080fd5b6000601f19601f8301169050919050565b7f4e487b7100000000000000000000000000000000000000000000000000000000600052604160045260246000fd5b6109e282610999565b810181811067ffffffffffffffff82111715610a0157610a006109aa565b5b80604052505050565b6000610a1461097b565b9050610a2082826109d9565b919050565b600067ffffffffffffffff821115610a4057610a3f6109aa565b5b610a4982610999565b9050602081019050919050565b82818337600083830152505050565b6000610a78610a7384610a25565b610a0a565b905082815260208101848484011115610a9457610a93610994565b5b610a9f848285610a56565b509392505050565b600082601f830112610abc57610abb61098f565b5b8135610acc848260208601610a65565b91505092915050565b600060208284031215610aeb57610aea610985565b5b600082013567ffffffffffffffff811115610b0957610b0861098a565b5b610b1584828501610aa7565b91505092915050565b600081519050919050565b600082825260208201905092915050565b60005b83811015610b58578082015181840152602081019050610b3d565b60008484015250505050565b6000610b6f82610b1e565b610b798185610b29565b9350610b89818560208601610b3a565b610b9281610999565b840191505092915050565b6000819050919050565b610bb081610b9d565b82525050565b60008115159050919050565b610bcb81610bb6565b82525050565b600060a0820190508181036000830152610beb8188610b64565b90508181036020830152610bff8187610b64565b9050610c0e6040830186610ba7565b8181036060830152610c208185610b64565b9050610c2f6080830184610bc2565b9695505050505050565b610c4281610b9d565b8114610c4d57600080fd5b50565b600081359050610c5f81610c39565b92915050565b600060208284031215610c7b57610c7a610985565b5b6000610c8984828501610c50565b91505092915050565b60006020820190508181036000830152610cac8184610b64565b905092915050565b60008060008060808587031215610cce57610ccd610985565b5b600085013567ffffffffffffffff811115610cec57610ceb61098a565b5b610cf887828801610aa7565b945050602085013567ffffffffffffffff811115610d1957610d1861098a565b5b610d2587828801610aa7565b9350506040610d3687828801610c50565b925050606085013567ffffffffffffffff811115610d5757610d5661098a565b5b610d6387828801610aa7565b91505092959194509250565b600081519050919050565b600082825260208201905092915050565b6000819050602082019050919050565b600082825260208201905092915050565b6000610db782610b1e565b610dc18185610d9b565b9350610dd1818560208601610b3a565b610dda81610999565b840191505092915050565b6000610df18383610dac565b905092915050565b6000602082019050919050565b6000610e1182610d6f565b610e1b8185610d7a565b935083602082028501610e2d85610d8b565b8060005b85811015610e695784840389528151610e4a8582610de5565b9450610e5583610df9565b925060208a01995050600181019050610e31565b50829750879550505050505092915050565b60006020820190508181036000830152610e958184610e06565b905092915050565b6000602082019050610eb26000830184610ba7565b92915050565b6000602082019050610ecd6000830184610bc2565b92915050565b600081905092915050565b6000610ee982610b1e565b610ef38185610ed3565b9350610f03818560208601610b3a565b80840191505092915050565b6000610f1b8284610ede565b915081905092915050565b7f4e487b7100000000000000000000000000000000000000000000000000000000600052602260045260246000fd5b60006002820490506001821680610f6d57607f821691505b602082108103610f8057610f7f610f26565b5b50919050565b7f46696c6520686173682063616e6e6f7420626520656d70747900000000000000600082015250565b6000610fbc601983610b29565b9150610fc782610f86565b602082019050919050565b60006020820190508181036000830152610feb81610faf565b9050919050565b7f5265706f727420776974682074686973206861736820616c726561647920657860008201527f6973747300000000000000000000000000000000000000000000000000000000602082015250565b600061104e602483610b29565b915061105982610ff2565b604082019050919050565b6000602082019050818103600083015261107d81611041565b9050919050565b60008190508160005260206000209050919050565b60006020601f8301049050919050565b600082821b905092915050565b6000600883026110e67fffffffffffffffffffffffffffffffffffffffffffffffffffffffffffffffff826110a9565b6110f086836110a9565b95508019841693508086168417925050509392505050565b6000819050919050565b600061112d61112861112384610b9d565b611108565b610b9d565b9050919050565b6000819050919050565b61114783611112565b61115b61115382611134565b8484546110b6565b825550505050565b600090565b611170611163565b61117b81848461113e565b505050565b5b8181101561119f57611194600082611168565b600181019050611181565b5050565b601f8211156111e4576111b581611084565b6111be84611099565b810160208510156111cd578190505b6111e16111d985611099565b830182611180565b50505b505050565b600082821c905092915050565b6000611207600019846008026111e9565b1980831691505092915050565b600061122083836111f6565b9150826002028217905092915050565b61123982610b1e565b67ffffffffffffffff811115611252576112516109aa565b5b61125c8254610f55565b6112678282856111a3565b600060209050601f83116001811461129a5760008415611288578287015190505b6112928582611214565b8655506112fa565b601f1984166112a886611084565b60005b828110156112d0578489015182556001820191506020850194506020810190506112ab565b868310156112ed57848901516112e9601f8916826111f6565b8355505b6001600288020188555050505b505050505050565b6000608082019050818103600083015261131c8187610b64565b905081810360208301526113308186610b64565b905081810360408301526113448185610b64565b90506113536060830184610ba7565b9594505050505056fea26469706673582212202216b0a3be560e6ef5ad47f040b4af3ae5bfdfe1455df9fa53bd19c6db9e4da464736f6c63430008140033",
  "linkReferences": {},
  "deployedLinkReferences": {}
}