{
  "_format": "hh-sol-artifact-1",
  "contractName": "ViolenceReport",
  "sourceName": "contracts/ViolenceReport.sol",
  "abi": [
    {
      "anonymous": false,
      "inputs": [
        {
          "indexed": false,
          "internalType": "string",
          "name": "reportHash",
          "type": "string"
        },
        {
          "indexed": false,
          "internalType": "string",
          "name": "violenceType",
          "type": "string"
        },
        {
          "indexed": false,
          "internalType": "string",
          "name": "location",
          "type": "string"
        },
        {
          "indexed": false,
          "internalType": "string",
          "name": "relationWithPerpetrator",
          "type": "string"
        },
        {
          "indexed": false,
          "internalType": "uint256",
          "name": "date",
          "type": "uint256"
        },
        {
          "indexed": false,
          "internalType": "string",
          "name": "fileName",
          "type": "string"
        }
      ],
      "name": "ReportSubmitted",
      "type": "event"
    },
    {
      "inputs": [
        {
          "internalType": "uint256",
          "name": "",
          "type": "uint256"
        }
      ],
      "name": "allReportHashes",
      "outputs": [
        {
          "internalType": "string",
          "name": "",
          "type": "string"
        }
      ],
      "stateMutability": "view",
      "type": "function"
    },
    {
      "inputs": [],
      "name": "getAllReportHashes",
      "outputs": [
        {
          "internalType": "string[]",
          "name": "",
          "type": "string[]"
        }
      ],
      "stateMutability": "view",
      "type": "function"
    },
    {
      "inputs": [
        {
          "internalType": "string",
          "name": "_reportHash",
          "type": "string"
        }
      ],
      "name": "getReport",
      "outputs": [
        {
          "internalType": "string",
          "name": "violenceType",
          "type": "string"
        },
        {
          "internalType": "string",
          "name": "location",
          "type": "string"
        },
        {
          "internalType": "string",
          "name": "relationWithPerpetrator",
          "type": "string"
        },
        {
          "internalType": "uint256",
          "name": "date",
          "type": "uint256"
        },
        {
          "internalType": "string",
          "name": "fileName",
          "type": "string"
        },
        {
          "internalType": "bool",
          "name": "exists",
          "type": "bool"
        }
      ],
      "stateMutability": "view",
      "type": "function"
    },
    {
      "inputs": [],
      "name": "getReportCount",
      "outputs": [
        {
          "internalType": "uint256",
          "name": "",
          "type": "uint256"
        }
      ],
      "stateMutability": "view",
      "type": "function"
    },
    {
      "inputs": [
        {
          "internalType": "string",
          "name": "",
          "type": "string"
        }
      ],
      "name": "reports",
      "outputs": [
        {
          "internalType": "string",
          "name": "violenceType",
          "type": "string"
        },
        {
          "internalType": "string",
          "name": "location",
          "type": "string"
        },
        {
          "internalType": "string",
          "name": "relationWithPerpetrator",
          "type": "string"
        },
        {
          "internalType": "uint256",
          "name": "date",
          "type": "uint256"
        },
        {
          "internalType": "string",
          "name": "fileName",
          "type": "string"
        },
        {
          "internalType": "bool",
          "name": "exists",
          "type": "bool"
        }
      ],
      "stateMutability": "view",
      "type": "function"
    },
    {
      "inputs": [
        {
          "internalType": "string",
          "name": "_reportHash",
          "type": "string"
        },
        {
          "internalType": "string",
          "name": "_violenceType",
          "type": "string"
        },
        {
          "internalType": "string",
          "name": "_location",
          "type": "string"
        },
        {
          "internalType": "string",
          "name": "_relationWithPerpetrator",
          "type": "string"
        },
        {
          "internalType": "uint256",
          "name": "_date",
          "type": "uint256"
        },
        {
          "internalType": "string",
          "name": "_fileName",
          "type": "string"
        }
      ],
      "name": "submitReport",
      "outputs": [],
      "stateMutability": "nonpayable",
      "type": "function"
    },
    {
      "inputs": [
        {
          "internalType": "string",
          "name": "_fileHash",
          "type": "string"
        }
      ],
      "name": "verifyReport",
      "outputs": [
        {
          "internalType": "bool",
          "name": "",
          "type": "bool"
        }
      ],
      "stateMutability": "view",
      "type": "function"
    }
  ],
  "bytecode": "0x608060405234801561001057600080fd5b5061157c806100206000396000f3fe608060405234801561001057600080fd5b506004361061007d5760003560e01c8063a0c6fc901161005b578063a0c6fc9014610108578063c14ebe5414610138578063cad9642b14610156578063f92df032146101745761007d565b806312e63d711461008257806331456fa3146100b757806364cceaef146100d3575b600080fd5b61009c60048036038101906100979190610c22565b6101a4565b6040516100ae96959493929190610d1e565b60405180910390f35b6100d160048036038101906100cc9190610dc7565b61047c565b005b6100ed60048036038101906100e89190610c22565b610680565b6040516100ff96959493929190610d1e565b60405180910390f35b610122600480360381019061011d9190610ee0565b6108ff565b60405161012f9190610f0d565b60405180910390f35b6101406109ab565b60405161014d919061103b565b60405180910390f35b61015e610a84565b60405161016b919061105d565b60405180910390f35b61018e60048036038101906101899190610c22565b610a91565b60405161019b9190611078565b60405180910390f35b6060806060600060606000806000886040516101c091906110cf565b90815260200160405180910390206040518060c00160405290816000820180546101e990611115565b80601f016020809104026020016040519081016040528092919081815260200182805461021590611115565b80156102625780601f1061023757610100808354040283529160200191610262565b820191906000526020600020905b81548152906001019060200180831161024557829003601f168201915b5050505050815260200160018201805461027b90611115565b80601f01602080910402602001604051908101604052809291908181526020018280546102a790611115565b80156102f45780601f106102c9576101008083540402835291602001916102f4565b820191906000526020600020905b8154815290600101906020018083116102d757829003601f168201915b5050505050815260200160028201805461030d90611115565b80601f016020809104026020016040519081016040528092919081815260200182805461033990611115565b80156103865780601f1061035b57610100808354040283529160200191610386565b820191906000526020600020905b81548152906001019060200180831161036957829003601f168201915b50505050508152602001600382015481526020016004820180546103a990611115565b80601f01602080910402602001604051908101604052809291908181526020018280546103d590611115565b80156104225780601f106103f757610100808354040283529160200191610422565b820191906000526020600020905b81548152906001019060200180831161040557829003601f168201915b505050505081526020016005820160009054906101000a900460ff1615151515815250509050806000015181602001518260400151836060015184608001518560a001519650965096509650965096505091939550919395565b60008651116104c0576040517f08c379a00000000000000000000000000000000000000000000000000000000081526004016104b790611192565b60405180910390fd5b6000866040516104d091906110cf565b908152602001604051809103902060050160009054906101000a900460ff161561052f576040517f08c379a000000000000000000000000000000000000000000000000000000000815260040161052690611224565b60405180910390fd5b6040518060c001604052808681526020018581526020018481526020018381526020018281526020016001151581525060008760405161056f91906110cf565b9081526020016040518091039020600082015181600001908161059291906113f0565b5060208201518160010190816105a891906113f0565b5060408201518160020190816105be91906113f0565b506060820151816003015560808201518160040190816105de91906113f0565b5060a08201518160050160006101000a81548160ff02191690831515021790555090505060018690806001815401808255809150506001900390600052602060002001600090919091909150908161063691906113f0565b507f215fa4a8acc1661cb93107c9749c69ed3b8348cf975351713df6c27769e3fb11868686868686604051610670969594939291906114c2565b60405180910390a1505050505050565b6000818051602081018201805184825260208301602085012081835280955050505050506000915090508060000180546106b990611115565b80601f01602080910402602001604051908101604052809291908181526020018280546106e590611115565b80156107325780601f1061070757610100808354040283529160200191610732565b820191906000526020600020905b81548152906001019060200180831161071557829003601f168201915b50505050509080600101805461074790611115565b80601f016020809104026020016040519081016040528092919081815260200182805461077390611115565b80156107c05780601f10610795576101008083540402835291602001916107c0565b820191906000526020600020905b8154815290600101906020018083116107a357829003601f168201915b5050505050908060020180546107d590611115565b80601f016020809104026020016040519081016040528092919081815260200182805461080190611115565b801561084e5780601f106108235761010080835404028352916020019161084e565b820191906000526020600020905b81548152906001019060200180831161083157829003601f168201915b50505050509080600301549080600401805461086990611115565b80601f016020809104026020016040519081016040528092919081815260200182805461089590611115565b80156108e25780601f106108b7576101008083540402835291602001916108e2565b820191906000526020600020905b8154815290600101906020018083116108c557829003601f168201915b5050505050908060050160009054906101000a900460ff16905086565b6001818154811061090f57600080fd5b90600052602060002001600091509050805461092a90611115565b80601f016020809104026020016040519081016040528092919081815260200182805461095690611115565b80156109a35780601f10610978576101008083540402835291602001916109a3565b820191906000526020600020905b81548152906001019060200180831161098657829003601f168201915b505050505081565b60606001805480602002602001604051908101604052809291908181526020016000905b82821015610a7b5783829060005260206000200180546109ee90611115565b80601f0160208091040260200160405190810160405280929190818152602001828054610a1a90611115565b8015610a675780601f10610a3c57610100808354040283529160200191610a67565b820191906000526020600020905b815481529060010190602001808311610a4a57829003601f168201915b5050505050815260200190600101906109cf565b50505050905090565b6000600180549050905090565b60008082604051610aa291906110cf565b908152602001604051809103902060050160009054906101000a900460ff169050919050565b6000604051905090565b600080fd5b600080fd5b600080fd5b600080fd5b6000601f19601f8301169050919050565b7f4e487b7100000000000000000000000000000000000000000000000000000000600052604160045260246000fd5b610b2f82610ae6565b810181811067ffffffffffffffff82111715610b4e57610b4d610af7565b5b80604052505050565b6000610b61610ac8565b9050610b6d8282610b26565b919050565b600067ffffffffffffffff821115610b8d57610b8c610af7565b5b610b9682610ae6565b9050602081019050919050565b82818337600083830152505050565b6000610bc5610bc084610b72565b610b57565b905082815260208101848484011115610be157610be0610ae1565b5b610bec848285610ba3565b509392505050565b600082601f830112610c0957610c08610adc565b5b8135610c19848260208601610bb2565b91505092915050565b600060208284031215610c3857610c37610ad2565b5b600082013567ffffffffffffffff811115610c5657610c55610ad7565b5b610c6284828501610bf4565b91505092915050565b600081519050919050565b600082825260208201905092915050565b60005b83811015610ca5578082015181840152602081019050610c8a565b60008484015250505050565b6000610cbc82610c6b565b610cc68185610c76565b9350610cd6818560208601610c87565b610cdf81610ae6565b840191505092915050565b6000819050919050565b610cfd81610cea565b82525050565b60008115159050919050565b610d1881610d03565b82525050565b600060c0820190508181036000830152610d388189610cb1565b90508181036020830152610d4c8188610cb1565b90508181036040830152610d608187610cb1565b9050610d6f6060830186610cf4565b8181036080830152610d818185610cb1565b9050610d9060a0830184610d0f565b979650505050505050565b610da481610cea565b8114610daf57600080fd5b50565b600081359050610dc181610d9b565b92915050565b60008060008060008060c08789031215610de457610de3610ad2565b5b600087013567ffffffffffffffff811115610e0257610e01610ad7565b5b610e0e89828a01610bf4565b965050602087013567ffffffffffffffff811115610e2f57610e2e610ad7565b5b610e3b89828a01610bf4565b955050604087013567ffffffffffffffff811115610e5c57610e5b610ad7565b5b610e6889828a01610bf4565b945050606087013567ffffffffffffffff811115610e8957610e88610ad7565b5b610e9589828a01610bf4565b9350506080610ea689828a01610db2565b92505060a087013567ffffffffffffffff811115610ec757610ec6610ad7565b5b610ed389828a01610bf4565b9150509295509295509295565b600060208284031215610ef657610ef5610ad2565b5b6000610f0484828501610db2565b91505092915050565b60006020820190508181036000830152610f278184610cb1565b905092915050565b600081519050919050565b600082825260208201905092915050565b6000819050602082019050919050565b600082825260208201905092915050565b6000610f7782610c6b565b610f818185610f5b565b9350610f91818560208601610c87565b610f9a81610ae6565b840191505092915050565b6000610fb18383610f6c565b905092915050565b6000602082019050919050565b6000610fd182610f2f565b610fdb8185610f3a565b935083602082028501610fed85610f4b565b8060005b85811015611029578484038952815161100a8582610fa5565b945061101583610fb9565b925060208a01995050600181019050610ff1565b50829750879550505050505092915050565b600060208201905081810360008301526110558184610fc6565b905092915050565b60006020820190506110726000830184610cf4565b92915050565b600060208201905061108d6000830184610d0f565b92915050565b600081905092915050565b60006110a982610c6b565b6110b38185611093565b93506110c3818560208601610c87565b80840191505092915050565b60006110db828461109e565b915081905092915050565b7f4e487b7100000000000000000000000000000000000000000000000000000000600052602260045260246000fd5b6000600282049050600182168061112d57607f821691505b6020821081036111405761113f6110e6565b5b50919050565b7f5265706f727420686173682063616e6e6f7420626520656d7074790000000000600082015250565b600061117c601b83610c76565b915061118782611146565b602082019050919050565b600060208201905081810360008301526111ab8161116f565b9050919050565b7f5265706f727420776974682074686973206861736820616c726561647920657860008201527f6973747300000000000000000000000000000000000000000000000000000000602082015250565b600061120e602483610c76565b9150611219826111b2565b604082019050919050565b6000602082019050818103600083015261123d81611201565b9050919050565b60008190508160005260206000209050919050565b60006020601f8301049050919050565b600082821b905092915050565b6000600883026112a67fffffffffffffffffffffffffffffffffffffffffffffffffffffffffffffffff82611269565b6112b08683611269565b95508019841693508086168417925050509392505050565b6000819050919050565b60006112ed6112e86112e384610cea565b6112c8565b610cea565b9050919050565b6000819050919050565b611307836112d2565b61131b611313826112f4565b848454611276565b825550505050565b600090565b611330611323565b61133b8184846112fe565b505050565b5b8181101561135f57611354600082611328565b600181019050611341565b5050565b601f8211156113a45761137581611244565b61137e84611259565b8101602085101561138d578190505b6113a161139985611259565b830182611340565b50505b505050565b600082821c905092915050565b60006113c7600019846008026113a9565b1980831691505092915050565b60006113e083836113b6565b9150826002028217905092915050565b6113f982610c6b565b67ffffffffffffffff81111561141257611411610af7565b5b61141c8254611115565b611427828285611363565b600060209050601f83116001811461145a5760008415611448578287015190505b61145285826113d4565b8655506114ba565b601f19841661146886611244565b60005b828110156114905784890151825560018201915060208501945060208101905061146b565b868310156114ad57848901516114a9601f8916826113b6565b8355505b6001600288020188555050505b505050505050565b600060c08201905081810360008301526114dc8189610cb1565b905081810360208301526114f08188610cb1565b905081810360408301526115048187610cb1565b905081810360608301526115188186610cb1565b90506115276080830185610cf4565b81810360a08301526115398184610cb1565b905097965050505050505056fea2646970667358221220580b79ee158e6c958ae7872fb389c94c2e672ee15d575d48cdd8f0b6613a683564736f6c63430008140033",
  "linkReferences": {},
  "deployedLinkReferences": {}
}