{
  "_format": "hh-sol-artifact-1",
  "contractName": "ViolenceReport",
  "sourceName": "contracts/ViolenceReport.sol",
  "abi": [
    {
      "inputs": [],
      "stateMutability": "nonpayable",
      "type": "constructor"
    },
    {
      "inputs": [
        {
          "internalType": "address",
          "name": "owner",
          "type": "address"
        }
      ],
      "name": "OwnableInvalidOwner",
      "type": "error"
    },
    {
      "inputs": [
        {
          "internalType": "address",
          "name": "account",
          "type": "address"
        }
      ],
      "name": "OwnableUnauthorizedAccount",
      "type": "error"
    },
    {
      "anonymous": false,
      "inputs": [
        {
          "indexed": true,
          "internalType": "address",
          "name": "previousOwner",
          "type": "address"
        },
        {
          "indexed": true,
          "internalType": "address",
          "name": "newOwner",
          "type": "address"
        }
      ],
      "name": "OwnershipTransferred",
      "type": "event"
    },
    {
      "anonymous": false,
      "inputs": [
        {
          "indexed": false,
          "internalType": "string",
          "name": "reportHash",
          "type": "string"
        },
        {
          "indexed": false,
          "internalType": "uint256",
          "name": "timestamp",
          "type": "uint256"
        }
      ],
      "name": "ReportSubmitted",
      "type": "event"
    },
    {
      "anonymous": false,
      "inputs": [
        {
          "indexed": false,
          "internalType": "string",
          "name": "reportHash",
          "type": "string"
        },
        {
          "indexed": false,
          "internalType": "bool",
          "name": "verified",
          "type": "bool"
        },
        {
          "indexed": false,
          "internalType": "uint256",
          "name": "timestamp",
          "type": "uint256"
        }
      ],
      "name": "ReportVerified",
      "type": "event"
    },
    {
      "inputs": [],
      "name": "getAllReports",
      "outputs": [
        {
          "components": [
            {
              "internalType": "string",
              "name": "reportHash",
              "type": "string"
            },
            {
              "internalType": "uint256",
              "name": "timestamp",
              "type": "uint256"
            },
            {
              "internalType": "bool",
              "name": "exists",
              "type": "bool"
            }
          ],
          "internalType": "struct ViolenceReport.Report[]",
          "name": "",
          "type": "tuple[]"
        }
      ],
      "stateMutability": "view",
      "type": "function"
    },
    {
      "inputs": [],
      "name": "owner",
      "outputs": [
        {
          "internalType": "address",
          "name": "",
          "type": "address"
        }
      ],
      "stateMutability": "view",
      "type": "function"
    },
    {
      "inputs": [],
      "name": "renounceOwnership",
      "outputs": [],
      "stateMutability": "nonpayable",
      "type": "function"
    },
    {
      "inputs": [
        {
          "internalType": "string",
          "name": "_reportHash",
          "type": "string"
        }
      ],
      "name": "submitReport",
      "outputs": [],
      "stateMutability": "nonpayable",
      "type": "function"
    },
    {
      "inputs": [
        {
          "internalType": "address",
          "name": "newOwner",
          "type": "address"
        }
      ],
      "name": "transferOwnership",
      "outputs": [],
      "stateMutability": "nonpayable",
      "type": "function"
    },
    {
      "inputs": [
        {
          "internalType": "string",
          "name": "_reportHash",
          "type": "string"
        }
      ],
      "name": "verifyReport",
      "outputs": [
        {
          "internalType": "bool",
          "name": "",
          "type": "bool"
        }
      ],
      "stateMutability": "view",
      "type": "function"
    }
  ],
  "bytecode": "0x608060405234801561001057600080fd5b5033600073ffffffffffffffffffffffffffffffffffffffff168173ffffffffffffffffffffffffffffffffffffffff16036100845760006040517f1e4fbdf700000000000000000000000000000000000000000000000000000000815260040161007b919061019e565b60405180910390fd5b6100938161009960201b60201c565b506101b9565b60008060009054906101000a900473ffffffffffffffffffffffffffffffffffffffff169050816000806101000a81548173ffffffffffffffffffffffffffffffffffffffff021916908373ffffffffffffffffffffffffffffffffffffffff1602179055508173ffffffffffffffffffffffffffffffffffffffff168173ffffffffffffffffffffffffffffffffffffffff167f8be0079c531659141344cd1fd0a4f28419497f9722a3daafe3b4186f6b6457e060405160405180910390a35050565b600073ffffffffffffffffffffffffffffffffffffffff82169050919050565b60006101888261015d565b9050919050565b6101988161017d565b82525050565b60006020820190506101b3600083018461018f565b92915050565b611097806101c86000396000f3fe608060405234801561001057600080fd5b50600436106100625760003560e01c8063635ac1ed14610067578063715018a6146100835780638da5cb5b1461008d578063f2fde38b146100ab578063f3d3ddfa146100c7578063f92df032146100e5575b600080fd5b610081600480360381019061007c91906107ec565b610115565b005b61008b61027c565b005b610095610290565b6040516100a29190610876565b60405180910390f35b6100c560048036038101906100c091906108bd565b6102b9565b005b6100cf61033f565b6040516100dc9190610aaf565b60405180910390f35b6100ff60048036038101906100fa91906107ec565b6104e4565b60405161010c9190610ae0565b60405180910390f35b61011d61051c565b60018160405161012d9190610b37565b908152602001604051809103902060020160009054906101000a900460ff161561018c576040517f08c379a000000000000000000000000000000000000000000000000000000000815260040161018390610bab565b60405180910390fd5b6040518060600160405280828152602001428152602001600115158152506001826040516101ba9190610b37565b908152602001604051809103902060008201518160000190816101dd9190610dd7565b506020820151816001015560408201518160020160006101000a81548160ff02191690831515021790555090505060028190806001815401808255809150506001900390600052602060002001600090919091909150908161023f9190610dd7565b507fca9527f94b3cb725157d30a4620266e81ae1170bb59b4266ddd3e36eddda669a8142604051610271929190610ef1565b60405180910390a150565b61028461051c565b61028e60006105a3565b565b60008060009054906101000a900473ffffffffffffffffffffffffffffffffffffffff16905090565b6102c161051c565b600073ffffffffffffffffffffffffffffffffffffffff168173ffffffffffffffffffffffffffffffffffffffff16036103335760006040517f1e4fbdf700000000000000000000000000000000000000000000000000000000815260040161032a9190610876565b60405180910390fd5b61033c816105a3565b50565b6060600060028054905067ffffffffffffffff811115610362576103616106c1565b5b60405190808252806020026020018201604052801561039b57816020015b61038861066f565b8152602001906001900390816103805790505b50905060005b6002805490508110156104dc576001600282815481106103c4576103c3610f21565b5b906000526020600020016040516103db9190610fd3565b908152602001604051809103902060405180606001604052908160008201805461040490610bfa565b80601f016020809104026020016040519081016040528092919081815260200182805461043090610bfa565b801561047d5780601f106104525761010080835404028352916020019161047d565b820191906000526020600020905b81548152906001019060200180831161046057829003601f168201915b50505050508152602001600182015481526020016002820160009054906101000a900460ff1615151515815250508282815181106104be576104bd610f21565b5b602002602001018190525080806104d490611019565b9150506103a1565b508091505090565b60006001826040516104f69190610b37565b908152602001604051809103902060020160009054906101000a900460ff169050919050565b610524610667565b73ffffffffffffffffffffffffffffffffffffffff16610542610290565b73ffffffffffffffffffffffffffffffffffffffff16146105a157610565610667565b6040517f118cdaa70000000000000000000000000000000000000000000000000000000081526004016105989190610876565b60405180910390fd5b565b60008060009054906101000a900473ffffffffffffffffffffffffffffffffffffffff169050816000806101000a81548173ffffffffffffffffffffffffffffffffffffffff021916908373ffffffffffffffffffffffffffffffffffffffff1602179055508173ffffffffffffffffffffffffffffffffffffffff168173ffffffffffffffffffffffffffffffffffffffff167f8be0079c531659141344cd1fd0a4f28419497f9722a3daafe3b4186f6b6457e060405160405180910390a35050565b600033905090565b604051806060016040528060608152602001600081526020016000151581525090565b6000604051905090565b600080fd5b600080fd5b600080fd5b600080fd5b6000601f19601f8301169050919050565b7f4e487b7100000000000000000000000000000000000000000000000000000000600052604160045260246000fd5b6106f9826106b0565b810181811067ffffffffffffffff82111715610718576107176106c1565b5b80604052505050565b600061072b610692565b905061073782826106f0565b919050565b600067ffffffffffffffff821115610757576107566106c1565b5b610760826106b0565b9050602081019050919050565b82818337600083830152505050565b600061078f61078a8461073c565b610721565b9050828152602081018484840111156107ab576107aa6106ab565b5b6107b684828561076d565b509392505050565b600082601f8301126107d3576107d26106a6565b5b81356107e384826020860161077c565b91505092915050565b6000602082840312156108025761080161069c565b5b600082013567ffffffffffffffff8111156108205761081f6106a1565b5b61082c848285016107be565b91505092915050565b600073ffffffffffffffffffffffffffffffffffffffff82169050919050565b600061086082610835565b9050919050565b61087081610855565b82525050565b600060208201905061088b6000830184610867565b92915050565b61089a81610855565b81146108a557600080fd5b50565b6000813590506108b781610891565b92915050565b6000602082840312156108d3576108d261069c565b5b60006108e1848285016108a8565b91505092915050565b600081519050919050565b600082825260208201905092915050565b6000819050602082019050919050565b600081519050919050565b600082825260208201905092915050565b60005b83811015610950578082015181840152602081019050610935565b60008484015250505050565b600061096782610916565b6109718185610921565b9350610981818560208601610932565b61098a816106b0565b840191505092915050565b6000819050919050565b6109a881610995565b82525050565b60008115159050919050565b6109c3816109ae565b82525050565b600060608301600083015184820360008601526109e6828261095c565b91505060208301516109fb602086018261099f565b506040830151610a0e60408601826109ba565b508091505092915050565b6000610a2583836109c9565b905092915050565b6000602082019050919050565b6000610a45826108ea565b610a4f81856108f5565b935083602082028501610a6185610906565b8060005b85811015610a9d5784840389528151610a7e8582610a19565b9450610a8983610a2d565b925060208a01995050600181019050610a65565b50829750879550505050505092915050565b60006020820190508181036000830152610ac98184610a3a565b905092915050565b610ada816109ae565b82525050565b6000602082019050610af56000830184610ad1565b92915050565b600081905092915050565b6000610b1182610916565b610b1b8185610afb565b9350610b2b818560208601610932565b80840191505092915050565b6000610b438284610b06565b915081905092915050565b600082825260208201905092915050565b7f5265706f727420616c7265616479206578697374730000000000000000000000600082015250565b6000610b95601583610b4e565b9150610ba082610b5f565b602082019050919050565b60006020820190508181036000830152610bc481610b88565b9050919050565b7f4e487b7100000000000000000000000000000000000000000000000000000000600052602260045260246000fd5b60006002820490506001821680610c1257607f821691505b602082108103610c2557610c24610bcb565b5b50919050565b60008190508160005260206000209050919050565b60006020601f8301049050919050565b600082821b905092915050565b600060088302610c8d7fffffffffffffffffffffffffffffffffffffffffffffffffffffffffffffffff82610c50565b610c978683610c50565b95508019841693508086168417925050509392505050565b6000819050919050565b6000610cd4610ccf610cca84610995565b610caf565b610995565b9050919050565b6000819050919050565b610cee83610cb9565b610d02610cfa82610cdb565b848454610c5d565b825550505050565b600090565b610d17610d0a565b610d22818484610ce5565b505050565b5b81811015610d4657610d3b600082610d0f565b600181019050610d28565b5050565b601f821115610d8b57610d5c81610c2b565b610d6584610c40565b81016020851015610d74578190505b610d88610d8085610c40565b830182610d27565b50505b505050565b600082821c905092915050565b6000610dae60001984600802610d90565b1980831691505092915050565b6000610dc78383610d9d565b9150826002028217905092915050565b610de082610916565b67ffffffffffffffff811115610df957610df86106c1565b5b610e038254610bfa565b610e0e828285610d4a565b600060209050601f831160018114610e415760008415610e2f578287015190505b610e398582610dbb565b865550610ea1565b601f198416610e4f86610c2b565b60005b82811015610e7757848901518255600182019150602085019450602081019050610e52565b86831015610e945784890151610e90601f891682610d9d565b8355505b6001600288020188555050505b505050505050565b6000610eb482610916565b610ebe8185610b4e565b9350610ece818560208601610932565b610ed7816106b0565b840191505092915050565b610eeb81610995565b82525050565b60006040820190508181036000830152610f0b8185610ea9565b9050610f1a6020830184610ee2565b9392505050565b7f4e487b7100000000000000000000000000000000000000000000000000000000600052603260045260246000fd5b60008154610f5d81610bfa565b610f678186610afb565b94506001821660008114610f825760018114610f9757610fca565b60ff1983168652811515820286019350610fca565b610fa085610c2b565b60005b83811015610fc257815481890152600182019150602081019050610fa3565b838801955050505b50505092915050565b6000610fdf8284610f50565b915081905092915050565b7f4e487b7100000000000000000000000000000000000000000000000000000000600052601160045260246000fd5b600061102482610995565b91507fffffffffffffffffffffffffffffffffffffffffffffffffffffffffffffffff820361105657611055610fea565b5b60018201905091905056fea264697066735822122084ce02884cd8ba87cc1e7f637559233d4a32e4f56d3fa892c33b74082b5b1a5764736f6c63430008140033",
  "linkReferences": {},
  "deployedLinkReferences": {}
}